:100000000C942A000C9447000C9447000C94470071
:100010000C9447000C9447000C943D040C9447004A
:100020000C9447000C9426040C9447000C94470051
:100030000C9447000C9447000C9447000C94470024
:100040000C9447000C9447000C9447000C94470014
:100050000C94470011241FBECFE5D8E0DEBFCDBF12
:1000600010E0A0E6B0E0EAE9FDE002C005900D92E4
:10007000AC3CB107D9F720E0ACECB0E001C01D9278
:10008000A33EB207E1F70E948C010C94CB060C94BE
:1000900000000E94960387E10E9494032FEF8DE3F6
:1000A00099E4215080409040E1F700C0000086EDC7
:1000B00090E00E94B0032FEF89E698E12150804044
:1000C0009040E1F700C000000E945D0280E690E0F1
:1000D0000E94A9026091D6007091D70080E090E064
:1000E0000E94BE022FEF83ED90E3215080409040AC
:1000F000E1F700C0000080E10E9494032FEF83ED40
:1001000090E3215080409040E1F700C0000084ED72
:1001100090E00E94B0032FEF89E698E121508040E3
:100120009040E1F700C000000E945D028BE690E085
:100130000E94A9026091D4007091D50080E090E007
:100140000E94BE022FEF83ED90E32150804090404B
:10015000E1F700C0000083E20E9494032FEF83EDDB
:1001600090E3215080409040E1F700C0000082ED14
:1001700090E00E94B0032FEF89E698E12150804083
:100180009040E1F700C000000E945D0283E790E02C
:100190000E94A9026091D2007091D30080E090E0AB
:1001A0000E94BE022FEF83ED90E3215080409040EB
:1001B000E1F700C0000087E10E9494030E945D0205
:1001C0008AE790E00E94A90281E08093CE00089522
:1001D0008091D6009091D7002091D4003091D50025
:1001E0008217930780F04091D2005091D30084177A
:1001F000950708F445C023E52093CF009093D100E4
:100200008093D00016C04091D2005091D3002417A3
:100210003507D0F182E58093CF003093D100209351
:10022000D00007C08CE48093CF005093D10040935E
:10023000D0000E945D0286E890E00E94A9028091B1
:10024000CF000E9461028FE890E00E94A9026091B5
:10025000D0007091D10080E090E00E94BE022FEFAC
:1002600083ED90E3215080409040E1F700C0000012
:1002700081E08093CD0008954217530798F6D9CFB7
:1002800028173907C8F304C04817590758F6D1CFC3
:100290004091D2005091D3002417350718F2BACFFD
:1002A0000E945D028091CF00823591F0833519F074
:1002B0008C34F9F416C081E990E00E94A90260E054
:1002C00080E00E94180360E081E00E94180311C0E2
:1002D00085EA90E00E94A90260E081E00E94180394
:1002E00008C086EB90E00E94A90260E080E00E94D6
:1002F00018031092CF001092D7001092D6001092DF
:10030000D5001092D4001092D3001092D200109217
:10031000D1001092D00008950E94DB020E94960343
:100320000E941E020E94850302C00E944900809123
:10033000CE008823D1F31092CE008091CD008111A0
:1003400006C00E94E8008091CD008823D1F310926E
:10035000CD0025C088ED90E00E94B0038091D800C8
:100360009091D9000B97C8F40E945D0286EC90E052
:100370000E94A90280E00E94600381E00E94600365
:1003800081E08093CC002FEF83ED90E321508040FB
:100390009040E1F700C0000002C00E94500180912F
:1003A000CC008823B9F21092CC00C1CFCF93C82FD4
:1003B00040E061E081E00E94FD0440E062E081E015
:1003C0000E94FD0440E063E081E00E94FD048BB3E5
:1003D0009C2F907F8F70892B8BBB41E063E081E085
:1003E0000E94FD048FE99FE00197F1F700C0000033
:1003F00040E063E081E00E94FD042BB330E1C39F45
:10040000C0011124922F9F70892B8BBB41E063E0C8
:1004100081E00E94FD048FE99FE00197F1F700C0A1
:10042000000040E063E081E00E94FD048FE39FE173
:100430000197F1F700C00000CF91089541E064E01A
:1004400080E00E948C0441E065E080E00E948C0422
:1004500041E066E080E00E948C0441E067E080E0DB
:100460000E948C0441E061E081E00E948C0441E044
:1004700062E081E00E948C0441E063E081E00E9440
:100480008C0483E30E94D60182E30E94D60188E2B5
:100490000E94D60181E00E94D60182E00E94D6012E
:1004A00086E00E94D6018CE00E94D6018FE39FE196
:1004B0000197F1F700C00000089581E00E94D60185
:1004C0000895CF93C82F41E061E081E00E94FD04D0
:1004D00040E062E081E00E94FD0440E063E081E0F2
:1004E0000E94FD048BB39C2F907F8F70892B8BBB58
:1004F00041E063E081E00E94FD048FE99FE0019705
:10050000F1F700C0000040E063E081E00E94FD04DC
:100510002BB330E1C39FC0011124922F9F70892B10
:100520008BBB41E063E081E00E94FD048FE99FE026
:100530000197F1F700C0000040E063E081E00E9415
:10054000FD048FE39FE10197F1F700C00000CF9118
:100550000895CF93DF93EC018881882361F0219681
:100560000E9461028FE39CE90197F1F700C000004F
:1005700089918111F5CFDF91CF910895CF93DF93CA
:10058000CDB7DEB72A970FB6F894DEBF0FBECDBF4A
:100590002AE0AE014F5F5F4F0E948A06CE010196AE
:1005A0000E94A9022A960FB6F894DEBF0FBECDBFF7
:1005B000DF91CF91089541E064E083E00E948C04D4
:1005C00041E065E083E00E948C0440E064E083E069
:1005D0000E94FD0440E065E083E00E94FD0441E0EC
:1005E00063E082E00E948C0441E064E082E00E94CB
:1005F0008C0441E065E082E00E948C0441E066E00A
:1006000082E00E948C0440E063E082E00E94FD04EE
:1006100040E064E082E00E94FD0440E065E082E0AA
:100620000E94FD0440E066E082E00E94FD0408951F
:10063000CF93C62F882319F0813009F13FC041E0E4
:1006400064E083E00E94FD04CC2319F0C13061F026
:1006500035C041E063E082E00E94FD0440E064E0D8
:1006600082E00E94FD042AC040E063E082E00E9434
:10067000FD0441E064E082E00E94FD041FC041E00F
:1006800065E083E00E94FD04CC2319F0C13061F0E5
:1006900015C041E065E082E00E94FD0440E066E0B4
:1006A00082E00E94FD040AC040E065E082E00E9412
:1006B000FD0441E066E082E00E94FD04CF910895D0
:1006C000882319F0813089F0089540E064E083E0E8
:1006D0000E94FD0440E063E082E00E94FD0440E0EF
:1006E00064E082E00E94FD04089540E065E083E05C
:1006F0000E94FD0440E065E082E00E94FD0440E0CD
:1007000066E082E00E94FD0408958F9A85B58864B2
:1007100085BD85B5806285BD85B58F7E85BD85B576
:10072000876085BD13BC089583BD089541E060E0F6
:1007300083E00E948C0440E066E083E00E948C0429
:100740000E94720581E00E9476050E94930580E078
:100750000E949A0581E00E94A7050E946E050895F7
:10076000CF92DF92EF92FF920F931F93CF93DF937D
:10077000EC0141E060E083E00E94FD0425E32A955E
:10078000F1F7000040E060E083E00E94FD044FEFDD
:100790008DEE92E0415080409040E1F700C00000B3
:1007A0008091DE00823009F048C01092DE00809116
:1007B000DF009091E0002091DA003091DB00609141
:1007C000E1007091E200890120E030E098011127FA
:1007D000002768017901C61AD70AE108F108A701C4
:1007E0009601280F391F411D511DA5ECB1E20E9451
:1007F000700620E432E44FE050E00E944E06CA0149
:10080000B9010E94E8050E94B9059B0122503109F7
:100810002F38314018F47983688302C01982188216
:100820001092DB001092DA001092DD001092DC00D2
:100830000E94930580E00E949A05DF91CF911F915D
:100840000F91FF90EF90DF90CF9008951F920F923D
:100850000FB60F9211248F939F938091DC0090919B
:10086000DD0001969093DD008093DC009F918F91D5
:100870000F900FBE0F901F9018951F920F920FB6FA
:100880000F9211242F933F934F935F936F937F9316
:100890008F939F93AF93BF93EF93FF938091DE006D
:1008A000811111C086B597B59093E2008093E10065
:1008B00081E00E949A051092DD001092DC0081E038
:1008C0008093DE0018C08091DE008130A1F486B5EF
:1008D00097B59093E0008093DF008091DC009091C9
:1008E000DD009093DB008093DA0082E08093DE00ED
:1008F00080E00E949A05FF91EF91BF91AF919F9187
:100900008F917F916F915F914F913F912F910F90B8
:100910000FBE0F901F901895442319F04130C9F174
:100920000895813091F028F08230D9F0833029F198
:1009300008952AB381E090E002C0880F991F6A955C
:10094000E2F7809582238ABB089527B381E090E087
:1009500002C0880F991F6A95E2F78095822387BBB2
:10096000089524B381E090E002C0880F991F6A9532
:10097000E2F78095822384BB089521B381E090E063
:1009800002C0880F991F6A95E2F78095822381BB88
:100990000895813089F028F08230C9F0833011F158
:1009A00008952AB381E090E002C0880F991F6A95EC
:1009B000E2F7822B8ABB089527B381E090E002C062
:1009C000880F991F6A95E2F7822B87BB089524B39D
:1009D00081E090E002C0880F991F6A95E2F7822BB0
:1009E00084BB089521B381E090E002C0880F991F75
:1009F0006A95E2F7822B81BB0895442319F04130B8
:100A0000C9F10895813091F028F08230D9F0833017
:100A100029F108952BB381E090E002C0880F991F5F
:100A20006A95E2F7809582238BBB089528B381E015
:100A300090E002C0880F991F6A95E2F780958223A3
:100A400088BB089525B381E090E002C0880F991F0C
:100A50006A95E2F78095822385BB089522B381E0F1
:100A600090E002C0880F991F6A95E2F78095822373
:100A700082BB0895813089F028F08230C9F083303C
:100A800011F108952BB381E090E002C0880F991F07
:100A90006A95E2F7822B8BBB089528B381E090E042
:100AA00002C0880F991F6A95E2F7822B88BB0895D0
:100AB00025B381E090E002C0880F991F6A95E2F7A4
:100AC000822B85BB089522B381E090E002C0880F9D
:100AD000991F6A95E2F7822B82BB08958FB78068D1
:100AE0008FBF08958FB78F778FBF0895882359F0F0
:100AF0008130C1F48FB58C7F8FBD8EB5877E8EBD62
:100B00001DBC1CBC08958FB582608FBD8FB58E7FD4
:100B10008FBD8EB588618EBD8FB580688FBD8FB556
:100B20008F7B8FBD089589B7846089BF89B7806244
:100B300089BF0895882319F0813029F008958EB572
:100B400080648EBD08958EB58F7B8EBD08958823F9
:100B500049F0813069F48EB5887F8EBD8EB5826094
:100B60008EBD08958EB58B7F8EBD8EB583608EBD94
:100B700008950E942D0688F09F5798F0B92F992765
:100B8000B751B0F0E1F0660F771F881F991F1AF078
:100B9000BA95C9F714C0B13091F00E944706B1E090
:100BA00008950C944706672F782F8827B85F39F08F
:100BB000B93FCCF3869577956795B395D9F73EF411
:100BC00090958095709561957F4F8F4F9F4F0895B9
:100BD000E89409C097FB3EF49095809570956195D7
:100BE0007F4F8F4F9F4F9923A9F0F92F96E9BB278D
:100BF0009395F695879577956795B795F111F8CF09
:100C0000FAF4BB0F11F460FF1BC06F5F7F4F8F4F73
:100C10009F4F16C0882311F096E911C0772321F069
:100C20009EE8872F762F05C0662371F096E8862F01
:100C300070E060E02AF09A95660F771F881FDAF758
:100C4000880F9695879597F9089557FD9058440F0A
:100C5000551F59F05F3F71F04795880F97FB991F1B
:100C600061F09F3F79F087950895121613061406D8
:100C7000551FF2CF4695F1DF08C016161706180665
:100C8000991FF1CF86957105610508940895E89440
:100C9000BB2766277727CB0197F90895A1E21A2E83
:100CA000AA1BBB1BFD010DC0AA1FBB1FEE1FFF1F10
:100CB000A217B307E407F50720F0A21BB30BE40B60
:100CC000F50B661F771F881F991F1A9469F76095A7
:100CD0007095809590959B01AC01BD01CF01089561
:100CE0000E947B06A59F900DB49F900DA49F800D40
:100CF000911D11240895A29FB001B39FC001A39F2D
:100D0000700D811D1124911DB29F700D811D112444
:100D1000911D0895BB272A3051F4992342F4BDE276
:100D200090958095709561957F4F8F4F9F4F0C9454
:100D30009A06BB27FA01A62F621771058105910556
:100D4000330B30FB66F0AA27660F771F881F991FA9
:100D5000AA1FA21710F0A21B63953850A9F7A05D37
:100D6000AA3308F0A95DA19336F7B111B1931082AF
:100D7000CA010C94BB06DC01FC01672F719177233B
:100D8000E1F7329704C07C916D9370836291AE1746
:0A0D9000BF07C8F30895F894FFCFE1
:100D9A0053747261696768743A20005269676874AB
:100DAA003A20004C6566743A2000536572766F20CB
:100DBA0052657365740042657374204469723A20FF
:100DCA0000446972656374696F6E3A2053545241E4
:100DDA004947485400446972656374696F6E3A20E2
:100DEA00524947485400446972656374696F6E3AA0
:0C0DFA00204C4546540053544F5000005C
:00000001FF
